:04000000E2EF12F029
:1008000000010000000A00000064000000E803008E
:100810000010270000A086010040420F008096983B
:100820000000E1F50500CA9A3B00803FCDCC3DD7E2
:10083000233C12833AB7D138C62737388635C0D61D
:1008400033CC2B32708930E7DB2EE53C1E42A20D03
:1008500000803F00204100C842007A44401C4650BE
:10086000C34724744997184BBCBE4C6B6E4E03159E
:100870005079AD60F34971496E7465676572203DCA
:1008800020256400466C6F6174203D202566004D74
:100890006F7265205269676874004D6F7265204CF5
:1008A00065667400476F20616865616400494E4960
:1008B00043494F000000000E0001706F440E00011C
:1008C0006F6FA4EF08F000018251250AD8B40BD055
:1008D00040C0D9FF41C0DAFF000182C0DFFF404ABB
:1008E000412AA4EF08F0000E0001726F000E000113
:1008F000716F03D0000172851AD042C0F6FF43C069
:10090000F7FF424A432A08000001F5CF82F00001B8
:100910008251000AD8B4B2EF08F0640AD8B407D004
:10092000020AD8B4E7D70F0AD8A4A4EF08F0070E3C
:1009300000017215D8B42ED3000E0001776F060E99
:100940000001766F6FC0D9FF70C0DAFF0001DECF03
:100950007FF00001DECF80F00001DDCF81F0030EDB
:1009600000016F27000E0001702300018151800AF1
:10097000800F07E1000E0001805D03E1000E000121
:100980007F5DD8B011D07FC001F080C002F081C07F
:1009900003F0B0EC12F001C07FF002C080F003C0A1
:1009A00081F0030E00017113000E00017E6F000E36
:1009B00000017D6F7F0E0001811500018011000193
:1009C0007F11D8B497D0820E476EFF0E486E00019B
:1009D0007FC049F0000180C04AF0000181C04BF0A7
:1009E000000182C04CF0100E05D0D8904C324B3232
:1009F0004A324932E82EF9D74950472400017D6F29
:100A0000000E482000017E6F00017D07D8A07E0700
:100A10007DC00FF07EC010F0000E126E030E116E3E
:100A20009DEC12F00FC07DF010C07EF07DC007F08D
:100A30007EC008F0000E0A6E0A0E096E9FEC0FF0E1
:100A400007C07DF008C07EF000017E51800AF36E81
:100A5000800EF35C000ED8B47D5DD8B004D00001E8
:100A60007D07D8A07E0700017D510008B9EC08F091
:100A700024C073F025C074F026C075F073C015F063
:100A800074C016F075C017F07FC018F080C019F060
:100A900081C01AF0AEEC0DF015C073F016C074F002
:100AA00017C075F073C001F074C002F075C003F098
:100AB000000E046E800E056E3F0E066E39EC10F0CF
:100AC000D8B005D000017D07D8A07E0713D073C031
:100AD00001F074C002F075C003F0000E046E200E29
:100AE000056E410E066E39EC10F0D8A003D000015F
:100AF0007D4B7E2B00017751800AF36E800EF35CF4
:100B00000D0ED8B4765DD8B018D07FC02EF080C05E
:100B10002FF081C030F000017651A0EC0AF024C023
:100B200031F025C032F026C033F0BDEC0BF02EC002
:100B30007FF02FC080F030C081F000017E51800A2C
:100B4000F36E800EF35C0A0ED8B47D5DD8B028D069
:100B50007F0E000181150001801100017F11D8B4C2
:100B60006BD07FC02BF080C02CF081C02DF020EC2A
:100B70000EF02BC047F02CC048F02DC049F02EC01D
:100B80004AF04A50471048104910D8A455D00001E7
:100B90007E51800A800F020ED8B47D5DD8A04CD063
:100BA00073C001F074C002F075C003F0700E046EE3
:100BB000890E056E400E066E39EC10F0D8B003D0E9
:100BC0000001F70E02D00001F80E00017D27FF0E94
:100BD00000017E2300017D51B9EC08F024C073F0C0
:100BE00025C074F026C075F07FC001F080C002F00F
:100BF00081C003F073C004F074C005F075C006F046
:100C00002EEC0DF001C063F002C064F003C065F08B
:100C100004C066F063C078F064C079F065C07AF013
:100C200066C07BF0000E00017F6F000E0001806F38
:100C3000000E0001816F34D07FC02BF080C02CF0FB
:100C400081C02DF020EC0EF02BC078F02CC079F094
:100C50002DC07AF02EC07BF07FC03AF080C03BF010
:100C600081C03CF078C009F079C00AF07AC00BF07E
:100C70007BC00CF0A7EC11F009C03DF00AC03EF0BB
:100C80000BC03FF03DEC12F03AC07FF03BC080F06B
:100C90003CC081F0000E00017E6F000E00017D6FF0
:100CA000010E0001826F000182510A0AD8B41ED0E1
:100CB00000018251040D010EF324F66E080EF4209B
:100CC000F76E0900F5500001785D0900F55000014C
:100CD00079590900F55000017A590900F5500001D1
:100CE0007B59D8A003D00001822BDDD7030E000171
:100CF0007115476E000E00017215486E485047107E
:100D0000D8B451D040C0D9FF41C0DAFF2D0E48D031
:100D100078C001F079C002F07AC003F07BC004F023
:100D200000018251040D010EF324F66E080EF4202A
:100D3000F76E0900F5CF05F00900F5CF06F00900C0
:100D4000F5CF07F00A00F5CF08F081EC10F001C0F4
:100D500067F002C068F003C069F004C06AF067C0C1
:100D60000EF068C00FF069C010F06AC011F00A0EF2
:100D7000126E000E136E000E146E000E156E74ECE3
:100D800011F00EC067F00FC068F010C069F011C01C
:100D90006AF000016751300F40C0D9FF41C0DAFF4F
:100DA000DF6E404A412A0001820700018229D8B43F
:100DB0000DD0AED740C0D9FF41C0DAFF300EDF6E94
:100DC000404A412A00017D07D8A07E0700017E51DC
:100DD000800AF36E800EF35C010ED8B47D5DD8B04E
:100DE000E9D700017751800A800F090ED8B4765DEB
:100DF000D8A004D0080E0001826F02D076C082F025
:100E0000000182510001765F000E000182BFFF0EDB
:100E10000001775B00018251D8B408D040C0D9FFEF
:100E200041C0DAFF2E0EDF6E404A412A0001825196
:100E3000B9EC08F024C060F025C061F026C062F073
:100E40007FC018F080C019F081C01AF060C015F0A2
:100E500061C016F062C017F0AEEC0DF015C02BF0BB
:100E600016C02CF017C02DF020EC0EF02BC078F03F
:100E70002CC079F02DC07AF02EC07BF072D078C0F3
:100E800001F079C002F07AC003F07BC004F00001E9
:100E90008251040D010EF324F66E080EF420F76E55
:100EA0000900F5CF05F00900F5CF06F00900F5CFF0
:100EB00007F00A00F5CF08F081EC10F001C06BF0EC
:100EC00002C06CF003C06DF004C06EF06BC00EF099
:100ED0006CC00FF06DC010F06EC011F00A0E126EF3
:100EE000000E136E000E146E000E156E74EC11F0F1
:100EF0000EC06BF00FC06CF010C06DF011C06EF042
:100F000000016B51300F40C0D9FF41C0DAFFDF6EE6
:100F1000404A412A78C00EF079C00FF07AC010F034
:100F20007BC011F000018251040D010EF324F66E16
:100F3000080EF420F76E0900F5CF12F00900F5CF86
:100F400013F00900F5CF14F00A00F5CF15F074EC9A
:100F500011F00EC078F00FC079F010C07AF011C017
:100F60007BF00001820700018229D8B40DD087D719
:100F700040C0D9FF41C0DAFF300EDF6E404A412A3F
:100F800000017607D8A07707000177517611D8B411
:100F9000DBD0EED76FC0D9FF70C0DAFF0001DECF23
:100FA00078F00001DDCF79F00001000E000179BF7B
:100FB000FF0E00017A6F00017B6F020E00016F27A8
:100FC000000E0001702300017B51800A800F0BE1AD
:100FD000000E00017A5D07E1000E0001795D03E17A
:100FE000000E0001785DD8B012D0030E000171131D
:100FF00000017B1F00017A1F0001791F0001786D3D
:10100000000E0001792300017A2300017B23010EE9
:101010000001826F000182510A0AD8B41ED000017B
:101020008251040D010EF324F66E080EF420F76EC3
:101030000900F5500001785D0900F550000179596B
:101040000900F55000017A590900F55000017B595B
:10105000D8A003D00001822BDDD7030E000171154B
:10106000476E000E00017215486E48504710D8B404
:1010700008D040C0D9FF41C0DAFF2D0EDF6E404AD4
:10108000412A000182510001766F0001776B000157
:1010900076BF77074FD0000176C047F0000177C0D8
:1010A00048F0D89047364836D89047364836010E33
:1010B0004724F66E080E4820F76E0900F5CF05F0BC
:1010C0000900F5CF06F00900F5CF07F00A00F5CFCB
:1010D00008F078C001F079C002F07AC003F07BC05C
:1010E00004F081EC10F001C00EF002C00FF003C05C
:1010F00010F004C011F00A0E126E000E136E000EF6
:10110000146E000E156E74EC11F00EC049F00FC095
:101110004AF010C04BF011C04CF04950300F0001A4
:10112000826F40C0D9FF41C0DAFF000182C0DFFFFB
:10113000404A412A00017607D8A0770700017629A6
:10114000D8B47729D8A4A7D742C0F6FF43C0F7FF89
:10115000424A432A08000001F5CF82F0000182676D
:1011600063EF04F040C0D9FF41C0DAFF000EDF6E2C
:1011700012002A6E2AAEEAD02A6C2A50800A120F78
:10118000D8A08BD0000E126E030E116E000E0A6EE8
:101190000A0E096E000E046E640E036E2A50016E74
:1011A000026A01BE0206F1EC0FF001C007F002C0B6
:1011B00008F09FEC0FF0090E07240F6E000E0820B8
:1011C000106E9DEC12F0290E0F24F66E080E102002
:1011D000F76E0900F5CF18F00900F5CF19F00A00F5
:1011E000F5CF1AF0000E0A6E640E096E2A50076ED3
:1011F000086A07BE08069FEC0FF0120E07240F6E58
:10120000000E0820106E000E126E030E116E9DEC83
:1012100012F0290E0F24F66E080E1020F76E09004A
:10122000F5CF15F00900F5CF16F00A00F5CF17F04D
:10123000AEEC0DF015C027F016C028F017C029F04D
:1012400027C015F028C016F029C017F0000E126E46
:10125000030E116E000E046E0A0E036E2A50016E0C
:10126000026A01BE0206F1EC0FF001C00FF002C0ED
:1012700010F09DEC12F0290E0F24F66E080E1020CF
:10128000F76E0900F5CF18F00900F5CF19F00A0044
:10129000F5CF1AF0AEEC0DF03AD12A50800A750F56
:1012A000D8A04DD0000E0A6E0A0E096E2A50076EA5
:1012B000086A07BE08069FEC0FF0090E07240F6EA0
:1012C000000E0820106E000E126E030E116E9DECC3
:1012D00012F0290E0F24F66E080E1020F76E09008A
:1012E000F5CF15F00900F5CF16F00A00F5CF17F08D
:1012F000000E126E030E116E000E046E0A0E036EC7
:101300002A50016E026A01BE0206F1EC0FF001C024
:101310000FF002C010F09DEC12F0290E0F24F66EB3
:10132000080E1020F76E0900F5CF18F00900F5CF70
:1013300019F00A00F5CF1AF0AEEC0DF0E8D02A5003
:10134000030D290EF324F66E080EEED02A50800A03
:10135000120FD8A08BD0000E126E030E116E000E6D
:101360000A6E0A0E096E000E046E640E036E2A5099
:10137000016E026A01BE0206F1EC0FF001C007F037
:1013800002C008F09FEC0FF0090E07240F6E000E4C
:101390000820106E9DEC12F0500E0F24F66E080E11
:1013A0001020F76E0900F5CF18F00900F5CF19F0FD
:1013B0000A00F5CF1AF0000E0A6E640E096E2A506C
:1013C000076E086A07BE08069FEC0FF0120E07248E
:1013D0000F6E000E0820106E000E126E030E116EBE
:1013E0009DEC12F0500E0F24F66E080E1020F76ED2
:1013F0000900F5CF15F00900F5CF16F00A00F5CF7A
:1014000017F0AEEC0DF015C027F016C028F017C08D
:1014100029F027C015F028C016F029C017F0000EDB
:10142000126E030E116E000E046E0A0E036E2A5029
:10143000016E026A01BE0206F1EC0FF001C00FF06E
:1014400002C010F09DEC12F0500E0F24F66E080E44
:101450001020F76E0900F5CF18F00900F5CF19F04C
:101460000A00F5CF1AF0AEEC0DF051D02A50800AE8
:10147000750FD8A053D0000E0A6E0A0E096E2A50BE
:10148000076E086A07BE08069FEC0FF0090E0724D6
:101490000F6E000E0820106E000E126E030E116EFD
:1014A0009DEC12F0500E0F24F66E080E1020F76E11
:1014B0000900F5CF15F00900F5CF16F00A00F5CFB9
:1014C00017F0000E126E030E116E000E046E0A0E5F
:1014D000036E2A50016E026A01BE0206F1EC0FF0A3
:1014E00001C00FF002C010F09DEC12F0500E0F245E
:1014F000F66E080E1020F76E0900F5CF18F00900FF
:10150000F5CF19F00A00F5CF1AF0AEEC0DF015C0CA
:1015100024F016C025F017C026F011D02A50030D74
:10152000500EF324F66E080EF420F76E0900F5CF86
:1015300024F00900F5CF25F00A00F5CF26F01200BF
:101540002D6E6D0E2D6499D0000E126E030E116E6D
:10155000000E0A6E0A0E096E000E046E640E036E13
:101560002DC001F0026AF1EC0FF001C007F002C0DB
:1015700008F09FEC0FF0090E07240F6E000E0820F4
:10158000106E9DEC12F0290E0F24F66E080E10203E
:10159000F76E0900F5CF18F00900F5CF19F00A0031
:1015A000F5CF1AF0000E0A6E640E096E2DC007F01A
:1015B000086A9FEC0FF0120E07240F6E000E082031
:1015C000106E000E126E030E116E9DEC12F0290EBD
:1015D0000F24F66E080E1020F76E0900F5CF15F0F7
:1015E0000900F5CF16F00A00F5CF17F0AEEC0DF0BC
:1015F00015C02AF016C02BF017C02CF0000E126E8A
:10160000030E116E000E046E0A0E036E2DC001F063
:10161000026AF1EC0FF001C00FF002C010F09DEC77
:1016200012F0290E0F24F66E080E1020F76E090036
:10163000F5CF18F00900F5CF19F00A00F5CF1AF030
:101640002AC015F02BC016F02CC017F0AEEC0DF030
:1016500015C027F016C028F017C029F027C015F0D4
:1016600028C016F029C017F0000E186E000E196E73
:101670003F0E1A6EAEEC0DF079D00A0E2D645DD0DF
:10168000000E126E030E116E000E046E0A0E036E33
:101690002DC001F0026AF1EC0FF001C00FF002C0A2
:1016A00010F09DEC12F0290E0F24F66E080E10209B
:1016B000F76E0900F5CF18F00900F5CF19F00A0010
:1016C000F5CF1AF0000E0A6E0A0E096E2DC007F053
:1016D000086A9FEC0FF0090E07240F6E000E082019
:1016E000106E000E126E030E116E9DEC12F0290E9C
:1016F0000F24F66E080E1020F76E0900F5CF15F0D6
:101700000900F5CF16F00A00F5CF17F0AEEC0DF09A
:1017100015C02AF016C02BF017C02CF02AC015F007
:101720002BC016F02CC017F0000E186E000E196EAC
:101730003F0E1A6EAEEC0DF019D02D50030D290E90
:10174000F324F66E080EF420F76E0900F5CF15F0BD
:101750000900F5CF16F00A00F5CF17F0000E186E4D
:10176000000E196E3F0E1A6EAEEC0DF015C024F08F
:1017700016C025F017C026F0120030C034F0356ACC
:10178000366A2F34343601E335803450396E33C035
:1017900034F0356A366A3234343601E335803450F9
:1017A000386E3950D8B40CD03850395CD8B00FD01E
:1017B000395000083824346E190E345CD8A007D094
:1017C00031C02EF032C02FF033C030F0ABD03850E3
:1017D000D8B40CD03950385CD8B00FD0385000088D
:1017E0003924346E190E345CD8A007D02EC02EF0E8
:1017F0002FC02FF030C030F095D0060E376E30BEBF
:10180000378E33BE378C2F8EFF0E2E16FF0E2F16FF
:10181000000E3016328EFF0E3116FF0E3216000EFD
:1018200033163850395CD8B01AD0D89031363236A9
:101830003336380638503918D8B40DD0370637C08B
:1018400034F0070E3416D8B406D0EFD7D890303223
:101850002F322E32392A38503962F8D71DD03950FC
:10186000385CD8B019D0D8902E362F36303639069D
:1018700038503918D8B40DD0370637C034F0070EB9
:101880003416D8B406D0EFD7D89033323232313252
:10189000382A38503962F8D737AE0CD0FF0E2E1ADE
:1018A000FF0E2F1AFF0E301A010E2E26000E2F22C9
:1018B000000E302237AC0CD0FF0E311AFF0E321A58
:1018C000FF0E331A010E3126000E3222000E332293
:1018D000000E376E2E5031262F50322230503322D8
:1018E00033AE0ED0FF0E311AFF0E321AFF0E331A2E
:1018F000010E3126000E3222000E3322010E376E09
:1019000031C001F032C002F033C003F039C004F03E
:1019100037C005F04BEC0FF001C02EF002C02FF0E5
:1019200003C030F0120001C007F002C008F003C08D
:1019300009F004C00AF0180E05D0D8900A32093216
:1019400008320732E82EF9D70750106E106601D022
:101950006BD004C007F005C008F006C009F007C04E
:101960000AF0180E05D0D8900A3209320832073230
:10197000E82EF9D707500F6E0F6601D055D0038EB1
:10198000FF0E0116FF0E0216FF0E0316000E0416C0
:10199000068EFF0E0416FF0E0516FF0E0616000E2D
:1019A0000716000E0B6E000E0C6E000E0D6E000E74
:1019B0000E6E7F0E105E0F50A00F105E200E0F6E89
:1019C000D8900B360C360D360E360450015C05509F
:1019D00002580650035807500458D8A009D00450A4
:1019E000015E0550025A0650035A0750045A0B80F4
:1019F000D89001360236033604360F2EE1D710AEEA
:101A000010D01050800A076EE10E800A075CD8A043
:101A10000BD0D8900E320D320C320B32103EF9D76B
:101A200014D01F0E10640FD0000E016E000E026E57
:101A3000000E036E000E046E10D0D8900B360C36DC
:101A40000D360E3610061066F8D70BC001F00CC02C
:101A500002F00DC003F00EC004F0120003C007F046
:101A6000086A096A0234073601E3088007500F6EDE
:101A70000F6601D059D006C007F0086A096A05341C
:101A8000073601E3088007500E6E0E6601D04CD079
:101A9000028EFF0E0116FF0E0216000E0316058EB3
:101AA000FF0E0416FF0E0516000E0616000E0A6E37
:101AB000000E0B6E000E0C6E000E0D6E7F0E0F5E94
:101AC0000E50980F0F5E180E0E6ED8900A360B3619
:101AD0000C360D360450015C055002580650035870
:101AE000D8A007D00450015E0550025A0650035A90
:101AF0000A80D8900136023603360E2EE6D70FAE96
:101B000010D00F50800A076EE90E800A075CD8A03B
:101B10000BD0D8900D320C320B320A320F3EF9D76F
:101B200014D0170E0F640FD0000E016E000E026E5F
:101B3000000E036E000E046E10D0D8900A360B36DD
:101B40000C360D360F060F66F8D70AC001F00BC031
:101B500002F00CC003F00DC004F0120017C01BF01F
:101B60001C6A1D6A16341B3601E31C801B501E6E56
:101B70001E6601D00CD01AC01BF01C6A1D6A1934F5
:101B80001B3601E31C801B50236E236607D0000E1A
:101B9000156E000E166E000E176E51D023507B0F7F
:101BA0001E2617C023F01A50231A800E2316168EF5
:101BB000198EFF0E1816FF0E1916000E1A16000EBB
:101BC0001F6E000E206E000E216E070E226E15A0F5
:101BD00006D018501F26195020221A502122D890C2
:101BE000173216321532D890183619361A36222E78
:101BF000EED7090E226E15A006D018501F261950D8
:101C000020221A502122D890173216321532D8903D
:101C1000213220321F32222EEED71FC001F020C009
:101C200002F021C003F01EC004F023C005F04BEC0D
:101C30000FF001C015F002C016F003C017F012003B
:101C40002DC02FF0306A316A2C342F3601E33080FA
:101C50002F50396E396601D038D0170E2F6E2BC039
:101C600030F02CC031F02DC032F02F28336E04D06C
:101C7000D890323231323032332EFAD73050346E7F
:101C80002C8EFF0E2B16FF0E2C16000E2D162B5031
:101C9000356E2C50366E2D50376E386A8E0E395E8A
:101CA00039AE10D03950800A2F6EF10E800A2F5CA9
:101CB000D8A00BD0D8903832373236323532393E50
:101CC000F9D714D0170E39640FD0000E2B6E000E0A
:101CD0002C6E000E2D6E000E2E6E1BD0D890353659
:101CE00036363736383639063966F8D73450D8B4F0
:101CF00008D0381E371E361E356C000E36223722AD
:101D0000382235C02BF036C02CF037C02DF038C04B
:101D10002EF01200FFEC10F001C051F002C052F0A2
:101D2000DBEC12F0010E046E010ED5EC11F051C087
:101D30004DF052C04EF058EC12F0010E046E020E3F
:101D4000D5EC11F02AD0080E066EA40E056EC2EC7A
:101D500010F042D0080E066E9F0E056EC2EC10F019
:101D60003BD0080E066E9A0E056EC2EC10F034D011
:101D7000080E066E940E056EC2EC10F02DD0080E03
:101D8000066E8F0E056EC2EC10F026D0080E066EA1
:101D9000A40E056EC2EC10F01FD051C04FF052C01F
:101DA00050F05050000AD8B404D0FF0AD8B40CD078
:101DB000EDD74F50000AD8B4C6D7010AD8B4CAD755
:101DC000030AD8B4CED7E2D74F50FE0AD8B4D7D73B
:101DD000010AD8B4CDD7DAD71200000EF26E000E89
:101DE000956E000E966E8492C180C182C184C186B8
:101DF0003BEC11F0DBEC12F0010E046E010ED5ECA1
:101E000011F0000E956E95CF94FF94CF93FF93CF72
:101E100092FF000E0D6E000E0C6E340E0B6EF20E65
:101E2000E82EFED70B2EFCD7D388D38AD38C000E96
:101E3000926E000E806E948E949C93809382938415
:101E400093869388000E0D6E010E0C6E0D50800A65
:101E5000800F330ED8B40C5CD8B00BD01A0E0B6EBA
:101E6000F80EE82EFED70B2EFCD700D00C4A0D2A18
:101E7000EDD7000E846E000E816EDBEC12F0010EC9
:101E8000046E010ED5EC11F0080E066EAD0E056E57
:101E9000C2EC10F012000450D8B405D0015002106A
:101EA0000310D8A40CD0000E016E000E026E000EBE
:101EB000036E44D0042AD890033202320132000E5D
:101EC0000114066E000E0214076EFE0E0314086E57
:101ED000065007100810D8B40CD0ECD7042A010E15
:101EE0000126000E0222000E0322D8900332023295
:101EF0000132000E0114066E000E0214076EFF0E72
:101F00000314086E065007100810D8B406D0E6D7A0
:101F10000406D89001360236033602AEF9D704A083
:101F2000029ED8900432045003120550D8A4038EA8
:101F300001C001F002C002F003C003F01200000E65
:101F40000C6E0A50800AF36E800EF35C000ED8B45B
:101F5000095CD8B006D0096C0A1ED8B00A2A010E56
:101F60000C6E0850800AF36E800EF35C000ED8B43D
:101F7000075CD8B006D0076C081ED8B0082A010E3E
:101F80000C1A000E0E6E000E0D6E0A500910D8B419
:101F90001CD0010E0B6E04D0D89009360A360B2ADD
:101FA0000AAEFAD7D8900D360E360950075C0A50A3
:101FB0000858D8A005D00950075E0A50085A0D806D
:101FC000D8900A3209320B2EEDD70C50D8B404D079
:101FD0000D6C0E1ED8B00E2A0DC007F00EC008F012
:101FE0001200000E066E0250800AF36E800EF35C43
:101FF000000ED8B4015CD8B006D0016C021ED8B077
:10200000022A010E066E0450800AF36E800EF35C05
:10201000000ED8B4035CD8B004D0036C041ED8B052
:10202000042A04500310D8B418D0010E056E04D051
:10203000D89003360436052A04AEFAD70350015C63
:1020400004500258D8A004D00350015E0450025A34
:10205000D89004320332052EF1D70650D8B404D0FC
:10206000016C021ED8B0022A01C001F002C002F0C9
:10207000120003AE16D001C007F002C008F003C082
:1020800009F0071E081E091E072A000E0822092251
:10209000000E0724016E000E0820026E800E09203B
:1020A000036E06AE16D004C007F005C008F006C0E7
:1020B00009F0071E081E091E072A000E0822092221
:1020C000000E0724046E000E0820056E800E092005
:1020D000066E000E011A000E021A800E031A000E80
:1020E000041A000E051A800E061A0450015C0550F1
:1020F000025806500358D8B002D0D89001D0D880EA
:102100001200000E096E000E0A6E000E0B6E000E1D
:102110000C6E0850051006100710D8B42AD0010E16
:102120000D6E06D0D89005360636073608360D2ACD
:1021300008AEF8D7D89009360A360B360C3605505B
:10214000015C065002580750035808500458D8A0A4
:1021500009D00550015E0650025A0750035A085034
:10216000045A0980D89008320732063205320D2E03
:10217000E1D709C001F00AC002F00BC003F00CC0A7
:1021800004F01200000E0A6E000E096E1CD005C08D
:1021900007F006C008F0095007260A50082207C0B9
:1021A000F6FF08C0F7FFF86A070EF76403D00800CF
:1021B000F55005D0F6CFE9FFF7CFEAFFEF5021EC5D
:1021C00012F0094A0A2A05C007F006C008F00950B3
:1021D00007260A50082207C0F6FF08C0F7FFF86A72
:1021E000070EF76403D00800F55005D0F6CFE9FFDD
:1021F000F7CFEAFFEF500009D8B41200C8D781B07A
:1022000081A205D081A481A602D081B82FD081B04F
:1022100081B208D081B481A605D081A803D001681D
:10222000026828D081A081A209D081B481A606D0FD
:1022300081A804D0FF0E026EFE0E1BD081B081A2D9
:1022400009D081B481B606D081A804D0000E026EF8
:10225000010E0FD081B081A209D081B481A606D031
:1022600081B804D0000E026E020E03D0000E026E82
:10227000000E016E1200000E71EC12F01A0E046EC8
:10228000F80EE82EFED7042EFCD700D0030EC3ECC8
:1022900012F0070E046E7D0EE82EFED7042EFCD73A
:1022A00000F0030EC3EC12F00F0E046E480EE82E81
:1022B000FED7042EFCD7030EC3EC12F0020EC3ECC3
:1022C00012F0020EC3EC12F0080EC3EC12F0000E76
:1022D000C3EC12F00C0EC3EC12F0000EC3EC12F0C3
:1022E000060EC3EC12F01200155012101310141049
:1022F000D8B424D0010E166E06D0D89012361336FC
:1023000014361536162A15AEF8D712500E5C135037
:102310000F581450105815501158D8A008D012500A
:102320000E5E13500F5A1450105A1550115AD8906F
:102330001532143213321232162EE7D70EC00EF0B9
:102340000FC00FF010C010F011C011F012008E0E6F
:10235000116E06D0D8900C320B320A320932112A93
:10236000000E09140D6E000E0A140E6E000E0B14F2
:102370000F6EFF0E0C14106E10500D100E100F107B
:10238000D8A4E8D709C001F00AC002F00BC003F0DE
:1023900011C004F0000E056E4BEC0FF001C009F007
:1023A00002C00AF003C00BF01200056E0504D8A4A9
:1023B00010D004507F0F086E08380F0B066E0850BF
:1023C0000F0B076E0650C3EC12F00750C3EC12F06F
:1023D00013D00550020AD8A40FD00450BF0F086EC6
:1023E00008380F0B066E08500F0B076E0650C3EC33
:1023F00012F00750C3EC12F01200056E000E066ECC
:10240000000E066E19D0000E026EFA0E016E87ECF9
:1024100012F0000E026EFA0E016E87EC12F0000E42
:10242000026EFA0E016E87EC12F0000E026EFA0ECA
:10243000016E87EC12F0062A0650055CD8A0120047
:10244000E2D7046E04500F0B026E0450F00B036EC3
:10245000848003380F0B71EC12F084840D0EE82E8B
:10246000FED700F08494025071EC12F084840D0EBB
:10247000E82EFED700F084941200000E3D1A000EE4
:102480003E1A800E3F1A3AC02EF03BC02FF03CC0DF
:1024900030F03DC031F03EC032F03FC033F0BDEC13
:1024A0000BF02EC03AF02FC03BF030C03CF01200D1
:1024B0000001000E416E0001830E406E080E436E57
:1024C000770E426E4DC044F04EC045F05BEC04F018
:1024D0000001000E066E0001830E056EC2EC10F0C6
:1024E0001200016E01A002D0838801D0839801A25E
:1024F00002D0838A01D0839A01A402D0838C01D0B8
:10250000839C01A602D0838E01D0839E1200000E10
:10251000046E000E036E000E046E000E036E06D0F5
:10252000FA0E00F0E82EFDD7034A042A0350015C9E
:1025300004500258D8A01200F3D70F501102F3CF65
:1025400013F0F4CF14F00F501202F3501426105071
:102550001102F350142613C00FF014C010F0120033
:102560007F0E031402100110D8B406D0000E011A19
:10257000000E021A800E031A01C001F002C002F020
:1025800003C003F01200036E8490035071EC12F04C
:102590008484060E026E300EE82EFED7022EFCD783
:1025A00000D084941200EDEC0EF08AEC0EF0010ED7
:1025B000FDEC11F0FAD7000EC3EC12F0010EC3ECE3
:0E25C00012F01200000EF86E0001D3EF12F0C0
:020000040020DA
:08000000FFFFFFFFFFFFFFFF00
:020000040030CA
:0E0000002008191EFF8181FF0FC00FE00F4086
:00000001FF
